:100000000C9447050C946F050C946F050C946F05C8
:100010000C946F050C946F050C946F050C946F0590
:100020000C946F050C946F050C946F050C946F0580
:100030000C946F050C946F050C946F050C946F0570
:100040000C94DD160C946F050C94AB160C9485166D
:100050000C946F050C946F050C946F050C946F0550
:100060000C9427170C946F052200FF21000000005C
:1000700000003E5B4F5B3E3E6B4F6B3E1C3E7C3E4A
:100080001C183C7E3C181C577D571C1C5E7F5E1C58
:1000900000183C1800FFE7C3E7FF0018241800FF12
:1000A000E7DBE7FF30483A060E2629792926407F0C
:1000B000050507407F05253F5A3CE73C5A7F3E1C1B
:1000C0001C08081C1C3E7F14227F22145F5F005F07
:1000D0005F06097F017F006689956A6060606060E5
:1000E00094A2FFA29408047E040810207E20100829
:1000F000082A1C08081C2A08081E101010100C1EC4
:100100000C1E0C30383E3830060E3E0E0600000045
:10011000000000005F00000007000700147F147F4C
:1001200014242A7F2A122313086462364956205069
:100130000008070300001C2241000041221C002A85
:100140001C7F1C2A08083E08080080703000080840
:10015000080808000060600020100804023E5149B1
:10016000453E00427F400072494949462141494D80
:10017000331814127F1027454545393C4A49493107
:1001800041211109073649494936464949291E0086
:100190000014000000403400000008142241141430
:1001A000141414004122140802015909063E415D4D
:1001B000594E7C1211127C7F494949363E414141DA
:1001C000227F4141413E7F494949417F0909090157
:1001D0003E414151737F0808087F00417F41002064
:1001E00040413F017F081422417F404040407F0250
:1001F0001C027F7F0408107F3E4141413E7F090978
:1002000009063E4151215E7F09192946264949497F
:100210003203017F01033F4040403F1F2040201F29
:100220003F4038403F6314081463030478040361BB
:1002300059494D43007F41414102040810200041CB
:1002400041417F0402010204404040404000030756
:10025000080020545478407F2844443838444444AB
:1002600028384444287F385454541800087E090222
:1002700018A4A49C787F0804047800447D400020E2
:1002800040403D007F1028440000417F40007C0436
:100290007804787C080404783844444438FC1824F2
:1002A000241818242418FC7C0804040848545454C6
:1002B0002404043F44243C4040207C1C2040201C5B
:1002C0003C4030403C44281028444C9090907C4462
:1002D00064544C440008364100000077000000419F
:1002E00036080002010204023C2623263C1EA1A17E
:1002F00061123A4040207A38545455592155557965
:100300004122545478422155547840205455794024
:100310000C1E527212395555555939545454593985
:10032000555454580000457C410002457D4200016F
:10033000457C407D1211127DF0282528F07C545513
:1003400045002054547C547C0A097F49324949496C
:10035000323A4444443A324A4848303A4141217A98
:100360003A42402078009DA0A07D3D4242423D3D62
:100370004040403D3C24FF2424487E4943662B2FC7
:10038000FC2F2BFF0929F620C0887E090320545436
:1003900079410000447D413048484A32384040228B
:1003A0007A007A0A0A727D0D19317D2629292F28B3
:1003B000262929292630484D4020380808080808F1
:1003C000080808382F10C8ACBA2F102834FA0000DB
:1003D0007B000008142A142222142A140855005500
:1003E0000055AA55AA55AAFF55FF55FF000000FF6A
:1003F00000101010FF00141414FF001010FF00FF75
:100400001010F010F0141414FC001414F700FF0086
:1004100000FF00FF1414F404FC141417101F101034
:100420001F101F1414141F00101010F00000000003
:100430001F101010101F10101010F010000000FFFF
:10044000101010101010101010FF10000000FF14FA
:100450000000FF00FF00001F10170000FC04F41450
:10046000141710171414F404F40000FF00F7141408
:100470001414141414F700F7141414171410101F84
:10048000101F141414F4141010F010F000001F10BA
:100490001F0000001F14000000FC140000F010F00A
:1004A0001010FF10FF141414FF141010101F000080
:1004B0000000F010FFFFFFFFFFF0F0F0F0F0FFFF93
:1004C000FF0000000000FFFF0F0F0F0F0F38444424
:1004D0003844FC4A4A4A347E02020606027E027E04
:1004E0000263554941633844443C04407E201E2049
:1004F00006027E020299A5E7A5991C2A492A1C4CEE
:100500007201724C304A4D4D303048784830BC62F0
:100510005A463D3E494949007E0101017E2A2A2A68
:100520002A2A44445F444440514A444040444A518A
:10053000400000FF0103E080FF000008086B6B082B
:100540003612362436060F090F0600001818000070
:10055000001010003040FF0101001F01011E0019B2
:100560001D1712003C3C3C3C000000000000010351
:10057000070F1F3F7F0080C0E0F0F8FCFE00000086
:1005800000230026002900000000080002010000EE
:100590000304070000000000000000000000002429
:1005A0000027002A00DB40A4A62EAF2000A1C8D35C
:1005B00000408DAED580A8010204081020408001C3
:1005C0000204081020010204081020000000002589
:1005D0000028002B000404040404040404020202A2
:1005E0000202020303030303030000600000000093
:1005F00000000000000000000000E000000000001B
:10060000000000000000000001E000000000000009
:100610000000000000000001F000000000000000E9
:1006200000000000000003F00000000000000000D7
:10063000000000000007F0000000000000000000C3
:100640000000000007F800000000000000000000AB
:100650000000000FF800000003C0007E000001E071
:10066000007F0FF800000003C000FE000001E00062
:10067000FFEFF800000003C000FE000001E000FFF3
:10068000FFF800000003C000F00000000F007FFE34
:100690007FC0000003C000F00000000F003FFE7F9D
:1006A000F83FF1FBCFFCFEF3BC3DEFE01FFE7FFF08
:1006B0007FFBFFDFFEFEFFBC3DEFE01FC6FFFF7FBD
:1006C000FBFFDFFEFEFFBC3DEFE00FE3C7FE787BE4
:1006D000C3DE1EF0FFBC3DEF0007FF87FC787BC345
:1006E000DE1EF0F83C3DEF0001FFFFF0007BC3C0D1
:1006F0001EF0F03C3DEF0001F37FE03FFBC3CFFE77
:10070000F0F03C3DEF0003E33F807FFBC3DFFEF0F2
:10071000F03C3DEF0007E73C00787BC3DE1EF0F0C5
:100720003C3DEF0007FFBE00787BC3DE1EF0F03CCF
:100730003DEF0007FFFE00787BC3DE1EF0F03C3D7E
:10074000EF000FFFFE007FFBFFDFFEF0F03FFDEF4D
:10075000E00FFFFF007FFBFFDFFEF0F03FFDEFE06B
:100760000FF9FF003E79F9CF9EF0F01F3DE7E01F43
:10077000F1FF0000000000000000000000001F80EA
:10078000FF007FFFFFFFFFFFFFFFFFFFE01C007F79
:10079000007FFFFFFFFEB46D888D18E000001F0092
:1007A0007FFFFFFFFE95AD7DB577E000000F007F76
:1007B000FFFFFFFEA5AD9D8D19E0000006007FFF45
:1007C000FFFFFEB5ADEDB57EE0000000000001804A
:1007D0000000000000000000000380000000000096
:1007E0000000000007C0000000000000000000073B
:1007F000C00000000000000000000FC0000000006A
:1008000000000000001FE0000000000000000000E9
:100810001FE00000000000000000003FE0000000BA
:100820000000000000003FF0000000000000000099
:10083000007FF0000000000000001FF87FF00000C3
:1008400000000000003FFE7FF000000000000000FC
:100850003FFF7FF0000000000000001FFFFBE000F2
:100860000000000000000FFFF9FFC00000000000C2
:10087000000FFFF9FFF800000000000007FFF1FF84
:10088000FF00000000000003FC73FFFF8000000079
:10089000000001FE3FFFFF80000000000000FF1E7F
:1008A0000FFF000000000000007FFE1FFC000000A2
:1008B000000000003FFFFFF8000000000000000FF4
:1008C000DFFFE0000000000000001F19FFC0000073
:1008D00000000000003F3CFF00000000000000009E
:1008E0007E7CF800000000000000007FFE7C00001D
:1008F000000000000000FFFFFC00000000000000FE
:1009000000FFFFFE0000000000000000FFFFFE00EF
:1009100000000000000001FFEFFE000000000000EA
:100920000001FFCFFE0000000000000003FF07FEF3
:100930000000000000000003FC07FE0000000000B3
:10094000000003F003FE0000000000000001800032
:10095000FE000000000000000000007E000000001B
:100960000000000000003E00000000000000000049
:10097000000C000000000000078000FC000003C025
:10098000000000078001FC000003C0000000078099
:1009900001FC000003C0000000078001E00000002F
:1009A0001E000000078001E00000001E007FE3F74A
:1009B0009FF9FDE7787BDFC0FFF7FFBFFDFDFF7804
:1009C0007BDFC0FFF7FFBFFDFDFF787BDFC0F0F7E7
:1009D00087BC3DE1FF787BDE00F0F787BC3DE1F0AE
:1009E000787BDE0000F787803DE1E0787BDE007FEA
:1009F000F7879FFDE1E0787BDE00FFF787BFFDE131
:100A0000E0787BDE00F0F787BC3DE1E0787BDE003C
:100A1000F0F787BC3DE1E0787BDE00F0F787BC3D76
:100A2000E1E0787BDE00FFF7FFBFFDE1E07FFBDF69
:100A3000C0FFF7FFBFFDE1E07FFBDFC07CF3F39F6A
:100A40003DE1E03E7BCFC000000000000000000060
:100A50000000FFFFFFFFFFFFFFFFFFFFC0FFFFFFE3
:100A6000FFFD68DB111A31C0FFFFFFFFFD2B5AFBB2
:100A70006AEFC0FFFFFFFFFD4B5B3B1A33C0FFFF78
:100A8000FFFFFD6B5BDB6AFDC0004618701E112482
:100A90001FBECFEFD8E0DEBFCDBF23E0AAEBB1E0B1
:100AA00001C01D92A43EB207E1F711E0A0E0B1E061
:100AB000E2E7F2E402C005900D92AA3BB107D9F734
:100AC00015E0C6E4D5E004C02197FE010E94281F6E
:100AD000C534D107C9F70E9461190C942C210C94DC
:100AE0000000089596E0899FD0011124AB5DBC4FB2
:100AF00090967C936E935F9791E091969C939197DB
:100B0000E0919203F091930390919103992339F02E
:100B1000309751F0811108C08091410309943097BA
:100B200019F05C968C91FACF0895CF92DF92EF92F4
:100B3000FF920F931F9396E0899FF0011124EB5DC4
:100B4000FC4F11A2278D30A12130310551F178F0F1
:100B50002230310509F451C02330310509F452C067
:100B60001F910F91FF90EF90DF90CF900895662333
:100B7000B9F361E070E00E9472052FB7F89480919C
:100B80007A0290917B02A0917C02B0917D022FBFEE
:100B900080937D0390937E03A0937F03B0938003A3
:100BA000DFCF9FB7F894C0907A02D0907B02E0909C
:100BB0007C02F0907D029FBF00917D0310917E0327
:100BC00020917F0330918003C01AD10AE20AF30A10
:100BD00000918F031091900330E020E00C151D056B
:100BE0002E053F0550F462E070E01F910F91FF90D9
:100BF000EF90DF90CF900C9472056111B1CF63E05C
:100C000070E0F3CF70E060E0F0CF08950895AF9208
:100C1000BF92CF92DF92EF92FF920F931F93CF93E9
:100C2000DF936C017B018B01040F151FEB015E014B
:100C3000AE18BF08C017D10759F06991D601ED91E0
:100C4000FC910190F081E02DC6010995892B79F77F
:100C5000C501DF91CF911F910F91FF90EF90DF9031
:100C6000CF90BF90AF900895FC01538D448D252FF8
:100C700030E0842F90E0821B930B541710F0CF9636
:100C8000089501970895FC01918D828D981761F068
:100C9000A28DAE0FBF2FB11D5D968C91928D9F5F7F
:100CA0009F73928F90E008958FEF9FEF0895FC015E
:100CB000918D828D981731F0828DE80FF11D858D11
:100CC00090E008958FEF9FEF0895FC01918D228DA4
:100CD000892F90E0805C9F4F821B91098F73992729
:100CE000089582E892E00E94650621E0892B09F4CC
:100CF00020E0822F089580E090E0892B29F00E9467
:100D0000710681110C9400000895FC01A48DA80FB8
:100D1000B92FB11DA35ABF4F2C91848D90E001963D
:100D20008F739927848FA689B7892C93A089B1895D
:100D30008C91837080648C93938D848D981306C0FE
:100D40000288F389E02D80818F7D80830895EF9262
:100D5000FF920F931F93CF93DF93EC0181E0888F75
:100D60009B8D8C8D98131AC0E889F989808185FF45
:100D700015C09FB7F894EE89FF896083E889F989E7
:100D800080818370806480839FBF81E090E0DF91E9
:100D9000CF911F910F91FF90EF900895F62E0B8D3C
:100DA00010E00F5F1F4F0F731127E02E8C8D8E11F7
:100DB0000CC00FB607FCFACFE889F989808185FF5E
:100DC000F5CFCE010E948506F1CFEB8DEC0FFD2F04
:100DD000F11DE35AFF4FF0829FB7F8940B8FEA8919
:100DE000FB8980818062CFCFCF93DF93EC01888D28
:100DF0008823B9F0AA89BB89E889F9898C9185FD96
:100E000003C0808186FD0DC00FB607FCF7CF8C9123
:100E100085FFF2CF808185FFEDCFCE010E94850650
:100E2000E9CFDF91CF910895833081F028F48130AC
:100E300099F08230A9F008958730A9F08830C9F080
:100E40008430B1F4809180008F7D03C08091800058
:100E50008F7780938000089584B58F7784BD08953F
:100E600084B58F7DFBCF8091B0008F778093B000E9
:100E700008958091B0008F7DF9CFCF93DF93282F15
:100E800030E0F901E957FA4F8491F901E954FA4F3A
:100E9000D491F901EB52FA4FC491CC23A1F0811106
:100EA0000E941407EC2FF0E0EE0FFF1FE358FA4FFB
:100EB000A591B491EC91ED2381E090E009F480E0FC
:100EC000DF91CF91089580E090E0FACF862F0C94C7
:100ED0003D071F93CF93DF93282F30E0F901E957A7
:100EE000FA4F8491F901E954FA4FD491F901EB5288
:100EF000FA4FC491CC23A9F0162F81110E94140738
:100F0000EC2FF0E0EE0FFF1FE553FA4FA591B491DF
:100F10008FB7F894EC91111108C0D095DE23DC93C3
:100F20008FBFDF91CF911F910895DE2BF8CF862FD1
:100F3000642F0C946907CF93DF9390E0FC01E95490
:100F4000FA4F24918B529A4FFC0184918823C9F067
:100F500090E0880F991FFC01E556FA4FA591B491D6
:100F6000FC01E553FA4FC591D49161110DC09FB7B3
:100F7000F8948C91209582238C9388812823288350
:100F80009FBFDF91CF910895623051F49FB7F894DD
:100F90003C91822F809583238C93E8812E2BEFCF79
:100FA0008FB7F894EC912E2B2C938FBFEACF862F1E
:100FB000642F0C949B073FB7F89480916B0290913B
:100FC0006C02A0916D02B0916E0226B5A89B05C07F
:100FD0002F3F19F00196A11DB11D3FBFBA2FA92FB8
:100FE000982F8827BC01CD01620F711D811D911DB5
:100FF00042E0660F771F881F991F4A95D1F7089521
:101000008F929F92AF92BF92CF92DF92EF92FF9218
:101010004B015C010E94DB076B017C010E94DB0736
:101020006C197D098E099F09683E73408105910501
:10103000A8F321E0821A9108A108B10888EEC80E31
:1010400083E0D81EE11CF11C81149104A104B104B9
:1010500029F7FF90EF90DF90CF90BF90AF909F90D7
:101060008F900895EF92FF920F931F93CF93DF938A
:10107000EC01EC80FD806E157F050CF070C057FF11
:1010800004C0240F351F50E040E08E819F81FA019B
:10109000E20FF31F8E179F071CF49C01241B350BD6
:1010A000121613060CF05BC0922F842F869586953E
:1010B00086958E9DD0018F9DB00D11246A0F7B1FE8
:1010C000AF8DB8A1A60FB71F477049F188E0841B08
:1010D000482F682F70E0FB01EB58FA4FE491281776
:1010E00008F063C0621B71092FEF30E002C0359534
:1010F00027956A95E2F7E2230130110539F0B0F146
:101100000230110561F58C91E82702C08C91E82B23
:10111000EC93941720F12C813D81A20FB31FE92F8E
:10112000E41BE83078F00230110521F58E2F9C91F8
:1011300090959C932C813D81A20FB31F88508830DD
:10114000B0F7E770EE2359F0F0E0E359FA4FE4917D
:1011500001301105F9F010F10230110519F1DF919C
:10116000CF911F910F91FF90EF900895E0958C9192
:10117000E823CECF81E00115110509F480E08195C7
:101180009E2F8C932C813D81A20FB31F98509830D5
:10119000C0F7D7CF8C91E82BEC93E1CFE0958C9101
:1011A000E823FACF8C91E827F7CF0130110509F435
:1011B000ADCFE0F20230110509F4A5CFAE0DBF1D91
:1011C000AECF0F931F93CF93DF9377FF04C0260F0B
:1011D000371F70E060E0DC011496CD91DC91FB01DB
:1011E000E20FF31FCE17DF071CF49E01261B370BFF
:1011F000121613064CF5FA0157FD3796A3E0F59544
:10120000E795AA95E1F7EC9FD001ED9FB00DFC9F0B
:10121000B00D11246A0F7B1FDC015F96ED91FC91EC
:10122000E60FF71F4770552781E090E001C0880F57
:101230004A95EAF7482F0130110559F0A8F02E0F12
:101240003F1F02301105E1F0DF91CF911F910F9107
:1012500008952E0F3F1FE217F307B1F38191DF01CD
:101260001197842B8C93F7CF80952E0F3F1FE21799
:10127000F30751F39191DF01119798239C93F7CFD6
:10128000E217F30709F38191DF01119784278C930B
:10129000F7CF0F931F93FA01DC0156964C915697A6
:1012A0004230E9F04330A1F1413061F514964D919F
:1012B0005C91DA01AE1BBF0BFD01E21BF30B77FD66
:1012C0000BC0DC0116964D915C916417750724F4F0
:1012D000AB01BF010E94E1081F910F910895149680
:1012E0004D915C91DA01A61BB70BBD0161507109EC
:1012F000DC0116964D915C91DA01AE1BBF0BFD012E
:10130000E21BF30B77FDE8CFAF010E943208E4CF78
:1013100016964D915C91DA01A61BB70BBD01615089
:101320007109CDCF0F931F93FA01DC0156964C91B2
:1013300056974230A9F0433091F1413019F5149697
:101340004D915C91DA01AE1BBF0BFD013197F7FDAA
:1013500004C0AB01BF010E9432081F910F91089594
:1013600014964D915C91DA01A61BB70BBD01DC010F
:1013700016964D915C91DA01AE1BBF0BFD013197C2
:10138000621B730BF7FDE9CFDC0116964D915C9162
:10139000E417F50714F7AF010E94E108DECF1696B7
:1013A0004D915C91DA01A61BB70BBD01621B730B5B
:1013B000CECFFC0177FD64C08085918568177907E1
:1013C0000CF05EC057FD5CC08285938548175907B5
:1013D0000CF056C086898230B1F0833029F181301B
:1013E00041F484819581841B950BAB01BC01615054
:1013F00071092130310509F108F443C0223031056B
:1014000009F463C0089584819581DC01A61BB70BA4
:10141000BD016150710986819781DC01A41BB50B68
:10142000AD0141505109E5CF86819781861B970B0D
:10143000BA01AC0141505109DCCFCA0157FD0796F2
:10144000A3E095958795AA95E1F7A481B5818A9F38
:1014500090018B9F300D9A9F300D1124620F731FE6
:10146000078CF0A1E02DE60FF71F4770552721E00C
:1014700030E001C0220F4A95EAF78081822B8083F9
:101480000895CA0157FD079633E0959587953A95DB
:10149000E1F7A481B5818A9F90018B9F300D9A9FBF
:1014A000300D1124620F731F078CF0A1E02DE60FA1
:1014B000F71F4770552781E090E001C0880F4A95DB
:1014C000EAF7809590818923DACFCA0157FD079604
:1014D00023E0959587952A95E1F7A481B5818A9FA8
:1014E00090018B9F300D9A9F300D1124620F731F56
:1014F000078CF0A1E02DE60FF71F4770552721E07C
:1015000030E001C0220F4A95EAF780818227B7CFE9
:1015100020912002260F3327331F21323105ECF4AE
:1015200020914402FC0190E080E0243069F082E0E8
:101530000895A09120022191AC0140505E4FA40F6C
:10154000B52FB11D2C930196861798F38091200238
:10155000680F6093200280E0089581E00895109262
:10156000440281E0809346021092450261E082E1EC
:101570000E94690761E083E10E946907E9EBF0E0FE
:1015800080818E7F808380818D7F808388E48093BB
:10159000B80085E48093BC000895CF93DF9391E079
:1015A0009093FF018823B9F0C091B800D091BA00A0
:1015B0008091BC008A7B8093BC0060E082E10E9445
:1015C000690760E083E10E9469070E94AF0AD09337
:1015D000BA00C093B800DF91CF910895E0917502F1
:1015E00080917402E81730F4F0E0E652FE4F8081FB
:1015F00090E008958FEF9FEF08959091750280918C
:1016000074022FEF3FEF981748F4E92FF0E0E6520D
:10161000FE4F208130E09F5F90937502C9010895CD
:101620008091740290917502891B990B0895CF9255
:10163000DF92EF92FF920F931F93CF93DF937C0182
:10164000CB018A0120918102222389F0EB016B01F9
:10165000C40ED51ECC15DD0569F06991D701ED9159
:10166000FC910190F081E02DC7010995F3CF642F23
:101670000E94880AC801DF91CF911F910F91FF90BE
:10168000EF90DF90CF900895CF93DF931F92CDB767
:10169000DEB76983209181022223F9F020917E0236
:1016A000203258F021E030E0FC013383228390E0C7
:1016B00080E00F90DF91CF91089580917F02E82F15
:1016C000F0E0E654FE4F998190838F5F80937F0214
:1016D00080937E0281E090E0ECCF61E0CE01019644
:1016E0000E94880AF7CFCF92DF92EF92FF920F937A
:1016F0001F93CF93DF93D0917E0281E0D13208F027
:101700009CC0C09180020E94DB076B017C0180912C
:10171000440281116CC082E08093440281E0809396
:1017200046028FEF8093430210926802D0936702C3
:10173000AAEBB1E0E7E4F2E080E0D8138DC01092AC
:10174000690280916902CC0FC82BC0936902809115
:101750004502813009F084C0109245020E94DB07E7
:101760006B017C01809169028093BB008091FB0139
:101770009091FC01A091FD01B091FE01892B8A2B73
:101780008B2BA1F00E94DB070091FB011091FC0163
:101790002091FD013091FE016C197D098E099F0990
:1017A000061717072807390708F442C08091BC00C4
:1017B00083FDD8CF85EC8093BC000E94DB076B01D2
:1017C0007C0180914402823009F44CC08091430234
:1017D0008F3F09F469C080914302803209F466C0EA
:1017E00080914302803309F463C084E026C0809175
:1017F000FB019091FC01A091FD01B091FE01892BAC
:101800008A2B8B2B09F483CF0E94DB070091FB010D
:101810001091FC012091FD013091FE016C197D09B0
:101820008E099F09061717072807390708F06FCF99
:101830008091FA010E94CD0A85E010927F021092F9
:101840007E0210928102DF91CF911F910F91FF9044
:10185000EF90DF90CF9008959D9191938F5F6DCF22
:1018600085EEA9CF8091FB019091FC01A091FD0133
:10187000B091FE01892B8A2B8B2B09F4A2CF0E94F9
:10188000DB070091FB011091FC012091FD013091DB
:10189000FE016C197D098E099F0906171707280795
:1018A000390708F08ECFC4CF80E0C7CF82E0C5CF24
:1018B00083E0C3CF08958EBD00000DB407FEFDCFB9
:1018C0008EB50895EF92FF920F931F93CF93DF93FE
:1018D0007C01C62F8091BD039091BE03009709F44F
:1018E00059C02091C10331E03093810220938002DE
:1018F00010927F0210927E02DC01ED91FC9101902A
:10190000F081E02D60E009958701EE24E394F12C4D
:10191000D1E0C1508091BD039091BE03CF3F91F1C2
:10192000B0E2EB16F104D8F00E94730B8091BD0376
:101930009091BE032091C103D09381022093800235
:1019400010927F0210927E02DC01ED91FC910190D9
:10195000F081E02D60E00995EE24E394F12C809174
:10196000BD039091BE03F8016491DC01ED91FC91FF
:101970000190F081E02D0995BFEFEB1AFB0A0F5F94
:101980001F4FC7CFDF91CF911F910F91FF90EF9025
:101990000C94730BE091CD03F091CE039081809174
:1019A000D3038095892380838701C15008F438C010
:1019B000F80184912091BB033091BC03232B29F0C3
:1019C0000E945B0C0F5F1F4FF0CF28E030E040E833
:1019D000E091C903F091CA039091D103582F542389
:1019E000D9F05081952B9083E091CB03F091CC03FB
:1019F00090815091D203952B9083E091CB03F0918D
:101A0000CC0350819091D203909595239083469575
:101A100021503109E9F6D6CF508190959523E3CF37
:101A2000DF91CF911F910F91FF90EF9008951F9339
:101A3000CF93DF93EC018D8D9E8D009721F1162FB2
:101A400029A131E0309381022093800210927F021D
:101A500010927E02DC01ED91FC910190F081E02D6D
:101A600060E009958D8D9E8DDC01ED91FC910190DA
:101A7000F081E02D612F09958D8D9E8DDF91CF91A5
:101A80001F910C94730BADA5BEA59C918BA980955D
:101A900089238C938B8D9C8D892B31F0862FDF9140
:101AA000CF911F910C945B0C28E030E080E8A9A551
:101AB000BAA599A9462F4823C1F04C91942B9C9329
:101AC000ABA5BCA59C914AA9942B9C93ABA5BCA5A6
:101AD0004C919AA9909594239C9386952150310915
:101AE00031F7DF91CF911F9108954C9190959423F8
:101AF000E6CF8CBD9DBD08951F93CF93DF93EC017E
:101B0000162F8D8D9E8D892BB1F12DA93EA94FA940
:101B100058AD60E074E284EF90E00E94061F20510F
:101B200031094109510956954795379527952093D5
:101B3000B80066EA111167EACE010E94170D8D8D7B
:101B40009E8D892B41F129AD3AAD4BAD5CAD60E086
:101B500074E284EF90E00E94061F20513109410990
:101B6000510956954795379527952093B800DF91F1
:101B7000CF911F9108958B8D9C8D892B21F08EAD77
:101B80009FAD0E94790DEFA5F8A990818CA9809551
:101B900089238083CECFEFA5F8A980819CA9892BCA
:101BA0008083E5CF0895FC016370668B8481958105
:101BB00026813781613039F0633029F09187808741
:101BC00033872287089531872087938782870895F6
:101BD0002F923F924F925F926F927F928F929F923D
:101BE000AF92BF92CF92DF92EF92FF920F931F932B
:101BF000CF93DF93CDB7DEB76A970FB6F894DEBF09
:101C00000FBECDBF9A8F898F7A8369834A01D22E06
:101C100018870F833701BC2CDC0159962D913C911C
:101C20005A972115310509F015C118968D919C918F
:101C30001997681779070CF0D7C11A968D919C9166
:101C4000481759070CF0D0C14C2C512CB6E0CB9E54
:101C5000600D711D11247C876B87161617060CF01A
:101C6000C3C1EA2DF0E0FA87E98793E0EE0FFF1F8A
:101C70009A95E1F7F88BEF87CF01840F951F18161F
:101C800019060CF0B1C1A98DBA8D58968C918111AD
:101C900004C0BFEABD1508F4D394A98DBA8DED91A7
:101CA000FC9111970284F385E02DCD010995B5E0F3
:101CB000DB9EC0011124E981FA81FC83EB83312C86
:101CC000212C9C0123593F4F388F2F8B4A2D50E0F8
:101CD0005E8B4D8BEF89F88DE20DF31D44919E8252
:101CE0008D82D12CC12C69817A81620D731D7A8B12
:101CF000698B842F90E09C8B8B8BE98DFA8DA08172
:101D0000B18140FF82C0F1E0BF126FC0AF126DC061
:101D10001C96ED91FC912F813885A4014C0D5D1D21
:101D200069897A89898D9A8D0995EB89FC89F59560
:101D3000E7954E2F5FEFC51AD50A6D817E818D899B
:101D40009E89680F791F7E836D8398E0C916D10440
:101D500081F6AFEF2A1A3A0AEB81FC81E40DF51DFA
:101D6000FC83EB83F5E02F16310409F0B3CF2F810C
:101D7000388526153705B9F0A98DBA8DED91FC91FE
:101D8000B1E0BB1257C0AB1255C069817A816B5F5D
:101D90007F4F0088F189E02D830128E030E0A40125
:101DA000898D9A8D0995A98DBA8DED91FC91119728
:101DB0000688F789E02DCD016A960FB6F894DEBF4C
:101DC0000FBECDBFDF91CF911F910F91FF90EF908C
:101DD000DF90CF90BF90AF909F908F907F906F904B
:101DE0005F904F903F902F9009941E96ED91FC913B
:101DF000EF80F88409851A8592014D815E816B819F
:101E00007C81898D9A8D099590CF2F8138852615F3
:101E1000370509F48ACF31E0B31207C0A31205C019
:101E20001C96ED91FC91930178CF1E96ED91FC915B
:101E30007301E0CF6B857C85641975090684F7858D
:101E4000E02D73010F8518899201A401898D9A8D67
:101E50000995A9CFF90134969491329745915491FF
:101E6000D91AB7E0DB9E400D511D1124F9012591CF
:101E700034913C8B2B8BFA0125903490FA013296E9
:101E8000749031963491398B3296649031964490A7
:101E900041E04C1518F04A1508F07FC0662D062C5D
:101EA000000C770B7C836B83842D042C000C990B26
:101EB0009E838D83A98DBA8DED91FC91119702843B
:101EC000F385E02DCD010995512CD12CC12CEA2DA3
:101ED000F0E0FA87E9872B2D30E03C872B87A401BF
:101EE000440D511D47FC5A95588F4F8B69817A815B
:101EF000660D711D67FC7A957E876D877989C71697
:101F000008F051CF2C2D30E04D815E81420F531FE0
:101F1000A985BA854A9FC0014B9F900D5A9F900D8D
:101F20001124FC01E80DF91DF88BEF87852D612C3C
:101F30004F89588D420F531F5E8B4D8B671408F0ED
:101F400050C044244394480E877041F4C101019667
:101F5000EB89FC89E20DF31DD4901C01D7FE19C05A
:101F6000A98DBA8DED91FC91662D70E0B1E0BB12A8
:101F700019C0AB1217C02D853E85620F731F0484F4
:101F8000F585E02D2F8138854D895E89898D9A8D63
:101F90000995DD0C6394842DD1CF1E821D821C8295
:101FA0001B8288CF4B815C81640F751FAB85BC851C
:101FB0006A9FC0016B9F900D7A9F900D11246981DB
:101FC0007A81680F791F0684F785E02DEF80F88409
:101FD00009851A859D014F855889898D9A8D0995A6
:101FE000D8CF570CC3948ACF6A960FB6F894DEBF49
:101FF0000FBECDBFDF91CF911F910F91FF90EF905A
:10200000DF90CF90BF90AF909F908F907F906F9018
:102010005F904F903F902F9008958F929F92AF9234
:10202000CF92EF92FF920F931F93CF93DF93EC0128
:10203000262F898D9A8D009709F051C06A30D1F40E
:102040001D861C868D8948E0849F900111248E8511
:102050009F85820F931F9F878E8781E090E0DF919D
:10206000CF911F910F91FF90EF90CF90AF909F90E5
:102070008F9008956D3089F3CC88AD888F8988233F
:10208000C1F08C859D8536E0C39E800D911D112485
:10209000488559854817590764F44E855F851D8624
:1020A0001C8638E0A39EC0011124840F951F9F87D2
:1020B0008E87EA88FB88088919894E855F856C853B
:1020C0007D85CE010E94E80D2C898C859D8546E09A
:1020D000249F800D911D11249D878C87BECF6A306F
:1020E00069F41D861C86FC013896E4912D898E8545
:1020F0009F85E29F800D911D1124ADCF6D3009F4B5
:10210000ACCFFC0134963491631708F4A6CF329615
:10211000E491E61708F4A1CFFC01329685909490E3
:10212000462F431B342F47E0349F800C911C112411
:10213000F401329634913196E4913323A9F1EE23E0
:1021400099F1CC88F4013596E491AD884F89442308
:1021500001F10E2E000CFF0BE30FF11DCE9EA0012E
:10216000CF9E500D11246C857D85460F571F6885C5
:102170007985641775076CF44E855F851D861C860E
:10218000FC013896E491AE9E400D511D11245F87ED
:102190004E87EA88FB88088919894E855F856C859A
:1021A0007D85CE010E94E80DF4013496E4912C89DE
:1021B0008C859D85E29F800D911D11248DCF6F929E
:1021C0007F928F929F92AF92BF92CF92DF92EF92C7
:1021D000FF920F931F93CF93DF93EC016B015A0192
:1021E00039014801E881F9810284F385E02D0995E0
:1021F000E881F9810288F389E02D87019301A50127
:10220000B601CE010995A501480D591D415051094E
:10221000E881F9810288F389E02D9301B601CE01AE
:102220000995E881F9810088F189E02D9401A501E3
:10223000B601CE010995C60CD71CB60161507109D3
:10224000E881F9810088F189E02D9401A501CE0192
:102250000995E881F9810688F789E02DCE01DF91A3
:10226000CF911F910F91FF90EF90DF90CF90BF9093
:10227000AF909F908F907F906F9009946F927F9214
:102280008F929F92AF92BF92CF92DF92EF92FF9286
:102290000F931F93CF93DF935C01EB016A01490118
:1022A00038018701DC01ED91FC916217730719F584
:1022B000641675062CF0962D872D3A01C92ED82E5E
:1022C0009601261937092F5F3F4F048CF58DE02DBD
:1022D000A301BE01C5010995DF91CF911F910F9117
:1022E000FF90EF90DF90CF90BF90AF909F908F9036
:1022F0007F906F9008954615570591F4261737077C
:1023000024F0892D4B01C22FD82F9E01281939099D
:102310002F5F3F4F068CF78DE02DA601B401DACF79
:102320000284F385E02D0995D501ED91FC91048897
:10233000F589E02D83019401A601BE01C50109952F
:10234000D501ED91FC910688F789E02DC501DF915B
:10235000CF911F910F91FF90EF90DF90CF90BF90A2
:10236000AF909F908F907F906F900994EF92FF9223
:102370000F931F93DC011A960D911C911B971896D1
:102380002D913C911997ED91FC9100A0F1A1E02DC8
:102390007B0150E040E070E060E009951F910F91F3
:1023A000FF90EF9008954F925F926F927F928F927D
:1023B0009F92AF92BF92CF92DF92EF92FF920F93D4
:1023C0001F93CF93DF936C012B015A013901480110
:1023D000DC01ED91FC910284F385E02D0995E20189
:1023E000640C751CD601ED91FC91C615D7055CF403
:1023F0000088F189E02D87019401A501BE01C60185
:1024000009952196EFCF0688F789E02DC601DF9167
:10241000CF911F910F91FF90EF90DF90CF90BF90E1
:10242000AF909F908F907F906F905F904F900994A6
:102430008F929F92AF92BF92CF92DF92EF92FF92D4
:102440000F931F93CF93DF93EC015B014A01690166
:10245000E881F9810284F385E02D099595012C0D21
:102460003D1D21503109E881F9810488F589E02D6D
:1024700078018401A401B501CE010995E881F981B3
:102480000688F789E02DCE01DF91CF911F910F9142
:10249000FF90EF90DF90CF90BF90AF909F908F9084
:1024A00009948F929F92AF92BF92CF92DF92EF9258
:1024B000FF920F931F93CF93DF93EC015B014A01CF
:1024C00069017801E881F9810284F385E02D09959D
:1024D000C80CD91C860101501109E881F9810488D2
:1024E000F589E02D9501A401B501CE010995E8819A
:1024F000F9810688F789E02DCE01DF91CF911F91F8
:102500000F91FF90EF90DF90CF90BF90AF909F9092
:102510008F900994EF92FF920F931F93DC01ED913E
:10252000FC9100A0F1A1E02D09951F910F91FF9062
:10253000EF9008950F931F93DC01ED91FC91068CB1
:10254000F78DE02D09951F910F9108950F931F931B
:10255000DC01ED91FC91048CF58DE02D09951F9126
:102560000F910895DC01ED91FC910084F185E02D3F
:1025700009943F924F925F926F927F928F929F92B7
:10258000AF92BF92CF92DF92EF92FF920F931F9381
:10259000CF93DF935C017B014A016901390187E038
:1025A000680E711C93E0759467949A95E1F72B017E
:1025B000400E511E10E000E0312CD0E0C0E0CE0112
:1025C00087709927330C892B59F4FE0183E0F59528
:1025D000E7958A95E1F7E00FF11FE80DF91D3490BA
:1025E00037FE0AC021E030E0A701B5016C0F7D1F66
:1025F00080EA93E00E94B2122196CC16DD06F9F62D
:102600008FEFE81AF80A060D171DE414F504A9F671
:10261000DF91CF911F910F91FF90EF90DF90CF90BE
:10262000BF90AF909F908F907F906F905F904F90F2
:102630003F9008952F923F924F925F926F927F92B8
:102640008F929F92AF92BF92CF92DF92EF92FF92C2
:102650000F931F93CF93DF9300D000D000D0CDB75E
:10266000DEB73C016A013E832D83FC82EB82580178
:10267000A41AB50AB7FE03C0B194A194B1088D8025
:102680009E80861A970A97FE03C0919481949108C0
:102690008A149B045CF0902F812F0D811E819D83F5
:1026A0008E839C2D8D2D6B01692F782F0C151D05A8
:1026B0005CF09D818E817E836D83692F782F902FB2
:1026C000812F8601C92ED82E1601201A310A2B011E
:1026D0002D813E81421A530A57FE03C05194419402
:1026E0005108710137FE03C03FEFE31AF30AF59476
:1026F000E7948D819E81861797075CF5A1E0B0E095
:10270000BA83A983C016D1064CF1D301ED91FC9197
:102710000484F585E02D2B813C81A8016D817E81AB
:102720008A149B041CF04D815E81B801C301099598
:10273000E418F508F7FE0AC02D813E8189819A814F
:10274000280F391F3E832D83E20CF31C0F5F1F4FB0
:10275000D9CF2FEF3FEF3A832983D4CF26960FB6F8
:10276000F894DEBF0FBECDBFDF91CF911F910F91C7
:10277000FF90EF90DF90CF90BF90AF909F908F90A1
:102780007F906F905F904F903F902F9008950895A5
:1027900090E080E008952091A6033091A703C9013D
:1027A000079697FD079623E0959587952A95E1F77B
:1027B0002091A4033091A503829FA001839F500D17
:1027C000929F500D112470E060E08091BF039091C2
:1027D000C0030C941E21FC0180819181009711F0AF
:1027E0000C94CA1F08950E9410210F931F93CF933A
:1027F000DF93EC0188819981009759F02A813B8110
:102800002617370730F081E0DF91CF911F910F91AC
:1028100008958B016F5F7F4F0E945320009759F0FE
:10282000998388831B830A832C813D81232B59F74D
:10283000FC011082E8CF80E0E7CFEF92FF920F9388
:102840001F93CF93DF936115710541F480E0DF9111
:10285000CF911F910F91FF90EF9008954115510571
:10286000B1F07B01EC010C811D81040F151FB80133
:102870000E94F513882351F3288139818C819D8131
:10288000B701820F931F0E9425211D830C8381E0D5
:10289000DECFEF92FF920F931F93CF93DF93EC0164
:1028A0007B018A01BA010E94F513288139818111C7
:1028B00014C02115310519F0C9010E94CA1F1982DF
:1028C00018821D821C821B821A82CE01DF91CF9159
:1028D0001F910F91FF90EF9008951D830C83B70116
:1028E000C9010E942521F1CFFB0101900020E9F7E9
:1028F0003197AF01461B570B0C944914FC01118210
:1029000010821382128215821482FB010190002032
:10291000E9F73197AF01461B570B0C94491485ED2D
:102920008093BC008091FB019091FC01A091FD017E
:10293000B091FE010796A11DB11D23E0B695A795A4
:10294000979587952A95D1F72091BC0024FD03C067
:102950001092440208954091FB015091FC01609156
:10296000FD017091FE01452B462B472B69F3009723
:10297000A105B10541F025E32A95F1F70000019783
:10298000A109B109E1CF8091FA010C94CD0ABF925F
:10299000CF92DF92EF92FF920F931F93CF93DF932B
:1029A000CDB7DEB7A7970FB6F894DEBF0FBECDBF89
:1029B0008C010E94CB1381E090E09093B30380934D
:1029C000B2039093B1038093B0038093B4038093D8
:1029D000B5031092AD031092AC038AE090E090939F
:1029E000AF038093AE03D80114964D915C91159777
:1029F0006D917C9180EA93E00E9407061092AD03EE
:102A00001092AC0384E190E09093AF038093AE0307
:102A100060917602709177028091780290917902AC
:102A20001BA21AA21DA21CA21FA21EA22AE0AE0176
:102A30004F5F5F4F0E94831EBE016F5F7F4FCE01CD
:102A400082960E94741463E771E0CE0101960E94A1
:102A50007E144EA15FA16AA17BA1CE0101960E94C6
:102A60001D1481110CC089819A81009711F00E9478
:102A7000CA1F1A8219821E821D821C821B824D81EE
:102A80005E8169817A8180EA93E00E940706CE0127
:102A900001960E94EB13CE0182960E94EB13809167
:102AA000BD039091BE03892B09F49AC02091D503F0
:102AB0003091D6034091D7035091D80360E074E27F
:102AC00084EF90E00E94061F20513109410951090D
:102AD00056954795379527952093B80065E088E689
:102AE00090E00E94620C6091A403615080EA93E040
:102AF0000E94170D2091A6033091A703C9010796E4
:102B000097FD079633E0959587953A95E1F72091E3
:102B1000A4033091A503829F7001839FF00C929FC4
:102B2000F00C11240091BF031091C0038091BD03EC
:102B30009091BE03E00EF11E009709F499C0209118
:102B4000C10331E0309381022093800210927F0212
:102B500010927E02DC01ED91FC910190F081E02D5C
:102B600060E40995CC24C394D12CBB24B394809108
:102B7000BD039091BE03E016F10609F448C0B0E22F
:102B8000CB16D104D8F00E94730B8091BD039091B5
:102B9000BE032091C103B092810220938002109263
:102BA0007F0210927E02DC01ED91FC910190F08198
:102BB000E02D60E40995CC24C394D12C8091BD0311
:102BC0009091BE03F80161918F01DC01ED91FC91C0
:102BD0000190F081E02D0995BFEFCB1ADB0AC7CF3A
:102BE0008091BB039091BC03892B31F08091DE036F
:102BF0009091DF030E94790DE091CF03F091D00313
:102C000090818091D40380958923808367CF0E942F
:102C1000730B8091BD039091BE03892B09F46BC0A7
:102C20002091D9033091DA034091DB035091DC030A
:102C300060E074E284EF90E00E94061F20513109A9
:102C40004109510956954795379527952093B80026
:102C5000A7960FB6F894DEBF0FBECDBFDF91CF9120
:102C60001F910F91FF90EF90DF90CF90BF9008954C
:102C7000E091CD03F091CE0380819091D303892B15
:102C80008083E016F10629F2F80181918F012091ED
:102C9000BB033091BC03232B19F00E945B0CF1CFD6
:102CA00028E030E040E8E091C903F091CA03909138
:102CB000D103582F5423D9F05081952B9083E09164
:102CC000CB03F091CC0390815091D203952B90834C
:102CD000E091CB03F091CC0350819091D203909579
:102CE00095239083469521503109E9F6CACF50814A
:102CF00090959523E3CFE091CF03F091D0038081AD
:102D00009091D403892B8083A3CF1F920F920FB68B
:102D10000F9211242F933F934F935F936F937F9361
:102D20008F939F93AF93BF93EF93FF9382E892E0CB
:102D30000E948506FF91EF91BF91AF919F918F9176
:102D40007F916F915F914F913F912F910F900FBEA7
:102D50000F901F9018951F920F920FB60F9211248B
:102D60002F938F939F93EF93FF93E0919202F091B3
:102D700093028081E0919802F091990282FD1BC03C
:102D8000908180919B028F5F8F7320919C028217AC
:102D900041F0E0919B02F0E0EE57FD4F958F80935C
:102DA0009B02FF91EF919F918F912F910F900FBEFA
:102DB0000F901F9018958081F4CF1F920F920FB63D
:102DC0000F9211242F933F938F939F93AF93BF93B1
:102DD00080917A0290917B02A0917C02B0917D0259
:102DE00030916A0223E0230F2D3758F50196A11D7B
:102DF000B11D20936A0280937A0290937B02A09384
:102E00007C02B0937D0280916B0290916C02A09144
:102E10006D02B0916E020196A11DB11D80936B02EF
:102E200090936C02A0936D02B0936E02BF91AF912C
:102E30009F918F913F912F910F900FBE0F901F90F8
:102E4000189526E8230F0296A11DB11DD2CF1F921F
:102E50000F920FB60F9211242F933F934F935F93CE
:102E60006F937F938F939F93AF93BF93EF93FF9352
:102E70008091B900887F803609F44AC0F0F5883225
:102E800009F4A7C018F5803109F49BC0B8F4882371
:102E900009F4F9C0883009F494C0FF91EF91BF9113
:102EA000AF919F918F917F916F915F914F913F91E2
:102EB0002F910F900FBE0F901F901895883109F435
:102EC00088C0803251F78093430214C0803409F4E3
:102ED0009DC040F48033B9F38833F9F68093430200
:102EE00085ECB0C0803509F485C0883509F496C0FA
:102EF000883499F60E948F14D0CF883909F48CC099
:102F000038F5883729F050F4883611F0803729F6E3
:102F100083E0809344021092420257C0883809F43B
:102F20007BC0803919F0803809F0B7CF8091420218
:102F3000803208F071C0E091420281E08E0F8093F0
:102F400042028091BB00F0E0EE5DFD4F80833DC00A
:102F5000803B39F0E0F4803A09F479C0883A09F00E
:102F60009CCF84E0809344021092210210922002B0
:102F7000E0917202F0917302099580912002811113
:102F80000FC081E0809320021092000209C0803CB3
:102F900009F4A6CF883C09F4A3CF883B09F07DCF84
:102FA000E091210281E08E0F80932102F0E0E05059
:102FB000FE4F80818093BB0090912102809120027E
:102FC00029C0809169028093BB0085EC8093BC008E
:102FD00064CF9091680280916702981758F5E0914C
:102FE000680281E08E0F80936802F0E0E95BFD4F9C
:102FF0008081E9CFE091680281E08E0F80936802C2
:103000008091BB00F0E0E95BFD4F80839091680206
:10301000809167029817C8F285E8D8CFE0916802DE
:1030200081E08E0F809368028091BB00F0E0E95B45
:10303000FD4F80838091460281115CCF81E08093B7
:10304000450284EA8093BC001092440226CF85ECAE
:103050008093BC001092440280914202803230F48E
:10306000E0914202F0E0EE5DFD4F1082609142027D
:1030700070E0E0917002F091710282E292E00995B5
:10308000109242020ACF1092430234CF109285026E
:103090001092840288EE93E0A0E0B0E08093860274
:1030A00090938702A0938802B09389022DE131E0CA
:1030B000309383022093820225EC30E030938F021C
:1030C00020938E0224EC30E0309391022093900202
:1030D00020EC30E0309393022093920221EC30E018
:1030E000309395022093940222EC30E030939702C3
:1030F0002093960226EC30E03093990220939802B8
:1031000010929B0210929C0210929D0210929E02BD
:1031100010929703109296038093980390939903CB
:10312000A0939A03B0939B038FE291E09093950351
:10313000809394031092A3031092A20320E830E03E
:103140003093A5032093A40380E490E09093A70319
:103150008093A6033093A9032093A8039093AB0315
:103160008093AA031092B6031092AD031092AC03A1
:103170001092AF031092AE0381E08093B503809369
:10318000B4032FEF3FEF3093B3032093B203309398
:10319000B1032093B0038093B7031092B803109249
:1031A000BA031092B9038BE491E09093A10380934A
:1031B000A0031092BC031092BB0384E993E09093A8
:1031C000BE038093BD031092C0031092BF038FEF24
:1031D0008093C4038093C5038093C6038093C70381
:1031E00084E08093C80380E89AE1A6E0B0E0809391
:1031F000D5039093D603A093D703B093D80380EA66
:1032000096E8A1E0B0E08093D9039093DA03A0930D
:10321000DB03B093DC0380E58093DE031092DF03D1
:103220001092270310922B0310922A0310922C0362
:1032300081E491E09093260380932503E1E4F3E099
:103240001082148213821582369683E0ED37F807D8
:10325000B9F783E091E0909388038093870380E03F
:1032600091E090938A038093890384E080938B0399
:1032700083E080938C0387E091E0909386038093B2
:1032800085038AE090E090938E0380938D0384EF12
:1032900091E09093900380938F0310929303109288
:1032A0009203109281031092820310928303109272
:1032B00084031092910367E971E08FE193E00C942D
:1032C0007E14CF93DF93CDB7DEB72F970FB6F89468
:1032D000DEBF0FBECDBF789484B5826084BD84B557
:1032E000816084BD85B5826085BD85B5816085BD01
:1032F00080916E00816080936E00109281008091B9
:103300008100826080938100809181008160809340
:103310008100809180008160809380008091B10065
:1033200084608093B1008091B00081608093B00090
:1033300080917A00846080937A0080917A00826024
:1033400080937A0080917A00816080937A008091E6
:103350007A00806880937A001092C10062E089E070
:103360000E949B0762E08AE00E949B07E091920224
:10337000F091930282E08083E0918E02F0918F02BF
:103380001082E0919002F09191028FEC8083109274
:103390009A02E0919602F091970286E08083E09194
:1033A0009402F0919502808180618083E091940283
:1033B000F0919502808188608083E0919402F09181
:1033C0009502808180688083E0919402F09195025B
:1033D00080818F7D80838091BF039091C003892B72
:1033E00091F52091A6033091A703C901079697FD97
:1033F0000796B3E095958795BA95E1F72091A403D8
:103400003091A503AC01429FC001439F900D529F94
:10341000900D11240E942E1F9093C0038093BF0330
:10342000892B89F449E150E06BE771E082E892E092
:103430000E94070642E050E065E971E082E892E010
:103440000E940706FFCF0E94CB132091A603309164
:10345000A7038091A4039091A503B90121323105FE
:103460000CF458C16054710977FF02C06F5F7F4F41
:10347000759567958255910997FD019600E410E0D6
:1034800022E530E049EC57E0959587950E94B91206
:1034900082E08093C2038091BD039091BE03892B8B
:1034A00009F44BC18CE38093C10310927502109212
:1034B000740210927F0210927E020E94AF0A85E091
:1034C00096E0909373028093720286E096E0909368
:1034D0007102809370028091C80387FD1EC061E075
:1034E0000E949B0761E08091C8030E94690761E028
:1034F00070E080E090E00E94000860E08091C803E6
:103500000E9469076AE070E080E090E00E94000895
:1035100061E08091C8030E9469078091BD0390918A
:10352000BE03892B09F4C8C12091D5033091D6037D
:103530004091D7035091D80360E074E284EF90E0AB
:103540000E94061F2051310941095109569547959E
:10355000379527952093B80064E083EB95E00E94AF
:10356000620C6091A603615080EA93E00E94170DFF
:1035700064E08FEA95E00E94620C8091C20360E1F2
:10358000813009F064E180EA93E00E94170D64E065
:103590008BEA95E00E94620C8FE88093DD038091B6
:1035A000A4039091A5038038910509F09EC18091F4
:1035B000A6039091A7038034910509F0A6C18091DC
:1035C000C203813009F08FC18FE98093DD0312E1DE
:1035D0006AED80EA93E00E94170D612F80EA93E084
:1035E0000E94170D61E880EA93E00E94170D609138
:1035F000DD0380EA93E00E94170D69ED80EA93E015
:103600000E94170D8091C20362E2813009F061EFE0
:1036100080EA93E00E94170D66E085EA95E00E943B
:10362000620C8091BD039091BE03892B09F471C196
:103630002091D9033091DA034091DB035091DC03F0
:1036400060E074E284EF90E00E94061F205131098F
:103650004109510956954795379527952093B8000C
:1036600082E098E8A8E3B1E0809376029093770235
:10367000A0937802B093790267E971E0CE010196D8
:103680000E947E14CE0101960E94C714CE010196BD
:103690000E94EB13412C512C3201439440E0A42EA4
:1036A00040E0B42E51E0509391038FB7F8944091CD
:1036B0007A0250917B0260917C0270917D028FBFF3
:1036C0008091810390918203A0918303B091840340
:1036D000481B590B6A0B7B0B80918D0390918E03D5
:1036E000B0E0A0E084179507A607B70708F0B4C2BA
:1036F00010E080918B03181708F015C1E091870343
:10370000F0918803E10FF11D62E080810E949B0728
:103710001F5FEFCF6052710977FF02C06F5F7F4F6D
:10372000759567958357910997FD019600E210E022
:1037300023E730E049EE55E0A7CE61E08091C60373
:103740000E949B0761E08091C7030E949B078091C4
:10375000C603082E000C990BFC01EB52FA4FE491C2
:10376000F0E0EE0FFF1FE553FA4F259134913093AF
:10377000CE032093CD03FC01E954FA4FE491E0938A
:10378000D3038091C703082E000C990BFC01EB5268
:10379000FA4FE491F0E0EE0FFF1FE553FA4FA591C9
:1037A000B491B093D003A093CF03FC01E954FA4F36
:1037B000E491E093D4038C91E82BEC938091BB03CC
:1037C0009091BC03892B09F434C01FB7F894809101
:1037D0006F02811127C0EFEDF5E08491E1ECF5E097
:1037E0009491E82FF0E0EE0FFF1FE556FA4FA591F8
:1037F000B491EC91E92321F461E08AE00E94690729
:1038000061E08AE00E949B078CB580618CBD8CB51D
:1038100080648CBD61E08DE00E949B0761E08BE0DD
:103820000E949B0780916F028F5F80936F021FBF82
:1038300052CE61E08091C4030E949B0761E08091B9
:10384000C5030E949B078091C403082E000C990BAE
:10385000FC01EB52FA4FE491F0E0EE0FFF1FE5534D
:10386000FA4F259134913093CA032093C903FC0188
:10387000E954FA4FE491E093D1038091C503082EF7
:10388000000C990BFC01EB52FA4FE491F0E0EE0FC3
:10389000FF1FE553FA4FA591B491B093CC03A093C9
:1038A000CB03FC01E954FA4FE491E093D2038C91ED
:1038B000E095E823EC930FCE8091BB039091BC037D
:1038C000892B31F08091DE039091DF030E94790D06
:1038D000E091CF03F091D00390818091D403809543
:1038E0008923808339CE8FEC70CE8036910569F4C0
:1038F0008091A6039091A703409739F48091C20369
:10390000813029F480E18093DD0312E061CE8FEAFB
:10391000FACFE091CF03F091D00380819091D4034E
:10392000892B80839DCE312C80918C03381608F032
:1039300061C0E32CF12CE0918903F0918A03EE0D34
:10394000FF1D61E080810E949B07E0918903F09157
:103950008A03EE0DFF1D60E080810E946907D3019C
:10396000C201032C04C0880F991FAA1FBB1F0A9411
:10397000D2F74C016C01C094D094212C80918B0320
:10398000281608F5022D10E0E0918703F0918803D6
:10399000E00FF11F80810E943D070C5F1F4F000F59
:1039A000111FF801EB5DFC4F892B41F4808191815F
:1039B00088299929918380832394E0CF8081918104
:1039C0008C219D21F7CFE0918903F0918A03EE0DC0
:1039D000FF1D61E080810E946907809189039091B9
:1039E0008A03E80EF91E60E0F70180810E949B07C0
:1039F00033949ACF05E213E0F801878D90A1892BCB
:103A000031F4148E4FEF5FEF568F458F11A236962B
:103A100053E0E136F50789F7D12C80918B03D81656
:103A200008F053C0C12CED2CF12CEE0CFF1CC7018B
:103A3000835D9C4F7C0120918C03C21608F043C02B
:103A4000F701608171810C2C02C0769567950A940C
:103A5000E2F7D29E900111242C0D311DE5E2F3E036
:103A600080E0458D568D2417350709F437C18F5FE7
:103A700036968A30B1F760FF24C0E5E2F3E090E0CB
:103A800080E0448D411118C0E0918503F0918603D8
:103A9000E20FF31F408156E0589FF001599FF00D4F
:103AA0001124EB5DFC4F448F368F258F10A2178EAB
:103AB00061E00E94950505C0019636968A30910511
:103AC00001F7C394B8CFD394A8CF80E0F80191A1B7
:103AD0009111892F0A5F1F4FF3E001361F07B1F7DD
:103AE0009FB7F89440917A0250917B0260917C02DA
:103AF00070917D029FBF4093810350938203609336
:103B0000830370938403882309F4A6C0809146033D
:103B1000882309F4A1C08091440390914503019743
:103B200009F09AC080914103811199C08AE00E94F6
:103B30003D070197B9F567E971E08FE193E00E94D5
:103B4000741468E971E0CE0101960E947E14CE01E2
:103B500001960E94C714CE0101960E94EB1368EEF5
:103B600073E080E090E00E9400081A8219821C82B3
:103B70001B821E821D8260911F03709120036115BC
:103B8000710541F04091230350912403CE01019629
:103B90000E944914CE0101960E94C714CE010196DD
:103BA0000E94EB1389E00E943D07019709F048C08D
:103BB00060EA71E0CE0101960E947E14CE0101966A
:103BC0000E94C714CE0101960E94EB131091770258
:103BD0001F7068EE73E080E090E00E9400081B8692
:103BE0001A861D861C861F861E864AE0BE016F5FF0
:103BF0007F4F812F90E00E94A51EBE016F5F7F4F17
:103C0000CE010A960E947414CE010A960E94C7142F
:103C1000CE010A960E94EB1368EE73E080E090E01C
:103C20000E9400086FEA71E0CE0101960E947E14A6
:103C3000CE0101960E94C714CE0101960E94EB139B
:103C4000A114B10409F42ECD0E947106882309F451
:103C500029CD0E94000026CD1092910367CF8A32B1
:103C600009F464CF833209F461CF1A8219821C826D
:103C70001B821E821D828A871B86BE01665F7F4F64
:103C8000CE0101960E9474144D815E8169817A8112
:103C90008FE193E00E941D14CE0101960E94EB1368
:103CA0001A8219821C821B821E821D8260911F0350
:103CB000709120036115710541F0409123035091EB
:103CC0002403CE0101960E944914CE0101960E9460
:103CD000C714CE0101960E94EB1328CF6170E9CE84
:103CE0008FE193E00E94EB138BE491E09093A103AA
:103CF0008093A0038091BF039091C003009711F0BF
:103D00000C94CA1F0895BB27FA01A62F62177105EC
:103D100081059105330B30FB66F0AA27660F771FEC
:103D2000881F991FAA1FA21710F0A21B6395385075
:103D3000A9F7A05DAA3308F0A95DA19336F7B111E8
:103D4000B1931082CA010C94BF1EBB27FB015527FB
:103D5000AA27880F991FAA1FA41710F0A41B8395E8
:103D60005051B9F7A05DAA3308F0A95DA19300975F
:103D700079F7B111B1931192CB010C94BF1EDC0104
:103D8000FC01672F71917723E1F7329704C07C9192
:103D90006D9370836291AE17BF07C8F308952F9299
:103DA0003F924F925F926F927F928F929F92AF92CB
:103DB000BF92CF92DF92EF92FF920F931F93CF9318
:103DC000DF93CDB7DEB7CA1BDB0B0FB6F894DEBFAF
:103DD0000FBECDBF09942A88398848885F846E84D5
:103DE0007D848C849B84AA84B984C884DF80EE801F
:103DF000FD800C811B81AA81B981CE0FD11D0FB628
:103E0000F894DEBF0FBECDBFED010895A1E21A2EDA
:103E1000AA1BBB1BFD010DC0AA1FBB1FEE1FFF1F6E
:103E2000A217B307E407F50720F0A21BB30BE40BBE
:103E3000F50B661F771F881F991F1A9469F7609505
:103E40007095809590959B01AC01BD01CF010895BF
:103E5000EE0FFF1F0590F491E02D09940F931F932F
:103E6000CF93DF938230910510F482E090E0E091EF
:103E7000E203F091E30330E020E0B0E0A0E030970F
:103E800099F42115310509F44AC0281B390B243057
:103E90003105D8F58A819B816115710589F1FB0196
:103EA00093838283FE0111C040815181028113817D
:103EB00048175907E0F04817590799F4109761F02F
:103EC00012960C93129713961C933296CF01DF91A2
:103ED000CF911F910F9108950093E2031093E30394
:103EE000F4CF2115310551F04217530738F0A901DD
:103EF000DB019A01BD01DF01F801C1CFEF01F9CF6C
:103F00009093E3038093E203CDCFFE01E20FF31F12
:103F1000819391932250310939832883D7CF2091FF
:103F2000E0033091E103232B41F4209115013091FE
:103F300016013093E1032093E003209113013091A7
:103F400014012115310541F42DB73EB740911701F9
:103F500050911801241B350BE091E003F091E1032F
:103F6000E217F307A0F42E1B3F0B2817390778F050
:103F7000AC014E5F5F4F2417350748F04E0F5F1FAF
:103F80005093E1034093E003819391939FCFF0E03E
:103F9000E0E09CCFCF93DF930097E9F0FC013297EC
:103FA00013821282A091E203B091E303ED0130E0AD
:103FB00020E01097A1F420813181820F931F20917E
:103FC000E0033091E1032817390709F061C0F0934D
:103FD000E103E093E003DF91CF910895EA01CE176A
:103FE000DF07E8F54A815B819E0141155105B1F774
:103FF000E901FB83EA8349915991C40FD51FEC175E
:10400000FD0761F4808191810296840F951FE9017B
:1040100099838883828193819B838A83F0E0E0E0A7
:1040200012968D919C9113970097B9F52D913C9123
:104030001197CD010296820F931F2091E0033091DA
:10404000E1032817390739F6309751F51092E30349
:104050001092E203B093E103A093E003BCCFD383BB
:10406000C28340815181840F951FC817D90761F41D
:104070004E5F5F4F88819981480F591F518340835C
:104080008A819B81938382832115310509F0B0CF0A
:10409000F093E303E093E2039ECFFD01DC01C0CF88
:1040A00013821282D7CFB0E0A0E0E9E5F0E20C94F1
:1040B000D11E8C01009751F4CB010E942E1F8C0160
:1040C000C801CDB7DEB7E0E10C94ED1EFC01E60FB0
:1040D000F71F9C0122503109E217F30708F49DC035
:1040E000D901CD91DC911197C617D70798F0C5304B
:1040F000D10530F3CE0104978617970708F3C61B46
:10410000D70B2297C193D1936D937C93CF010E94DB
:10411000CA1FD6CF5B01AC1ABD0A4C018C0E9D1E86
:10412000A091E203B091E303512C412CF12CE12C3E
:10413000109731F58091E0039091E103881599057E
:1041400009F05CC04616570608F058C0809113016C
:1041500090911401009741F48DB79EB740911701DB
:1041600050911801841B950BE817F90708F055C00A
:10417000F093E103E093E003F90171836083A0CF42
:104180008D919C91119712966C90129713967C903A
:104190001397A815B90559F56C0142E0C40ED11C5E
:1041A000CA14DB0420F1AC014A195B09DA0112964A
:1041B000159780F06282738251834083D9016D9399
:1041C0007C93E114F10471F0D7011396FC93EE9304
:1041D000129776CF22968C0F9D1FF90191838083D1
:1041E000F301EFCFF093E303E093E20369CF4816C6
:1041F000590608F42C017D01D3019ACFCB010E940E
:104200002E1F7C01009749F0AE01B8010E941521D4
:10421000C8010E94CA1F870153CF10E000E050CFB1
:1042200081E090E0F8940C942C21FB01DC0102C0A9
:1042300001900D9241505040D8F70895DC0101C023
:104240006D9341505040E0F70895FB01DC0101906F
:104250000D920020E1F7089515E0C6E4D5E004C012
:10426000FE010E94281F2196C734D107C9F7F89490
:02427000FFCF7E
:10427200060804070203053132333435363738393C
:104282002A30230000E403800000000000A7060794
:10429200063406F40665064306570600000000448D
:1042A2000B170BC8137105100BFD0AEE0A00000074
:1042B20000D70797076607000000000D100706C821
:1042C20013C713D9097105B2128A12A6129A121AC9
:1042D200137105D30D7C0D49099209D311B6113E14
:1042E20011DF10746F6B656E3A2000535344313303
:1042F200303620616C6C6F636174696F6E20666129
:10430200696C6564000D0A00636C722E2E2E2E00FD
:10431200436865636B696E672E2E2E2E2E2E0074F7
:0A432200727920616761696E000086
:00000001FF
